:100000000C9463000C948B000C948B000C948B006C
:100010000C948B000C948B000C948B000C948B0034
:100020000C948B000C948B000C948B000C948B0024
:100030000C948B000C948B000C948B000C948B0014
:100040000C9461060C948B000C942F060C940906FA
:100050000C948B000C948B000C948B000C948B00F4
:100060000C948B000C948B000000000024002700EF
:100070002A0000000000250028002B0000000000DE
:1000800023002600290004040404040404040202DA
:100090000202020203030303030301020408102007
:1000A0004080010204081020010204081020000012
:1000B0000008000201000003040700000000000027
:1000C0000000BC06570911241FBECFEFD8E0DEBFE9
:1000D000CDBF22E0ACEFB1E001C01D92A63EB20759
:1000E000E1F711E0A0E0B1E0E4EFF7E102C0059034
:1000F0000D92AC3FB107D9F710E0C2E6D0E004C0E2
:100100002197FE010E94F509C136D107C9F70E9467
:100110001E070C94ED0B0C940000AF92BF92CF928F
:10012000DF92EF92FF920F931F93CF93DF936C01B7
:100130007B018B01040F151FEB015E01AE18BF0898
:10014000C017D10759F06991D601ED91FC9101904A
:10015000F081E02DC6010995892B79F7C501DF9162
:10016000CF911F910F91FF90EF90DF90CF90BF90B4
:10017000AF900895FC01538D448D252F30E0842FDE
:1001800090E0821B930B541710F0CF9608950197BF
:100190000895FC01918D828D981761F0A28DAE0FAC
:1001A000BF2FB11D5D968C91928D9F5F9F73928F33
:1001B00090E008958FEF9FEF0895FC01918D828D5F
:1001C000981731F0828DE80FF11D858D90E008952C
:1001D0008FEF9FEF0895FC01918D228D892F90E084
:1001E000805C9F4F821B91098F739927089585E149
:1001F00092E00E94EB0021E0892B09F420E0822F9D
:10020000089580E090E0892B29F00E94F700811189
:100210000C9400000895FC01A48DA80FB92FB11D06
:10022000A35ABF4F2C91848D90E001968F7399272C
:10023000848FA689B7892C93A089B1898C9183700A
:1002400080648C93938D848D981306C00288F38903
:10025000E02D80818F7D80830895EF92FF920F9330
:100260001F93CF93DF93EC0181E0888F9B8D8C8D62
:1002700098131AC0E889F989808185FF15C09FB756
:10028000F894EE89FF896083E889F9898081837019
:10029000806480839FBF81E090E0DF91CF911F91C8
:1002A0000F91FF90EF900895F62E0B8D10E00F5FE9
:1002B0001F4F0F731127E02E8C8D8E110CC00FB6BF
:1002C00007FCFACFE889F989808185FFF5CFCE0157
:1002D0000E940B01F1CFEB8DEC0FFD2FF11DE35AC6
:1002E000FF4FF0829FB7F8940B8FEA89FB898081DA
:1002F0008062CFCFCF93DF93EC01888D8823B9F054
:10030000AA89BB89E889F9898C9185FD03C0808120
:1003100086FD0DC00FB607FCF7CF8C9185FFF2CF9D
:10032000808185FFEDCFCE010E940B01E9CFDF91E7
:10033000CF910895833081F028F4813099F0823094
:10034000A9F008958730A9F08830C9F08430B1F45D
:10035000809180008F7D03C0809180008F77809393
:100360008000089584B58F7784BD089584B58F7D0E
:10037000FBCF8091B0008F778093B000089580917B
:10038000B0008F7DF9CFCF93DF93E0EBF0E0849165
:10039000ECE9F0E0D491E8E8F0E0C491CC23A1F0DE
:1003A00081110E949A01EC2FF0E0EE0FFF1FE4583C
:1003B000FF4FA591B491EC91ED2381E090E009F419
:1003C00080E0DF91CF91089580E090E0FACF1F9315
:1003D000CF93DF93282F30E0F901E255FF4F84914E
:1003E000F901E656FF4FD491F901EA57FF4FC49146
:1003F000CC23A9F0162F81110E949A01EC2FF0E076
:10040000EE0FFF1FEE58FF4FA591B4918FB7F894F0
:10041000EC91111108C0D095DE23DC938FBFDF91E2
:10042000CF911F910895DE2BF8CFCF93DF9390E00B
:10043000FC01E656FF4F24918A579F4FFC0184919F
:100440008823C9F090E0880F991FFC01E859FF4FFD
:10045000A591B491FC01EE58FF4FC591D491611163
:100460000DC09FB7F8948C91209582238C9388813E
:10047000282328839FBFDF91CF910895623051F4E4
:100480009FB7F8943C91822F809583238C93E881C9
:100490002E2BEFCF8FB7F894EC912E2B2C938FBF90
:1004A000EACF3FB7F8948091FD019091FE01A091B1
:1004B000FF01B091000226B5A89B05C02F3F19F09F
:1004C0000196A11DB11D3FBFBA2FA92F982F8827D4
:1004D000BC01CD01620F711D811D911D42E0660FAF
:1004E000771F881F991F4A95D1F708958F929F9281
:1004F000AF92BF92CF92DF92EF92FF924B015C01DD
:100500000E9451026B017C010E9451026C197D090D
:100510008E099F09683E734081059105A8F321E08B
:10052000821A9108A108B10888EEC80E83E0D81E8F
:10053000E11CF11C81149104A104B10429F7FF907E
:10054000EF90DF90CF90BF90AF909F908F900895E5
:10055000089590E080E00895CF93DF93EC0160E090
:100560008E810E94E70161E08E810E94E70160E0D8
:100570008E810E94E7018BE891E00197F1F7DF910E
:10058000CF910895CF92DF92EF92FF920F931F9336
:10059000CF93DF936C017C0187E0E80EF11CD0E083
:1005A000C0E0062F10E0B8010C2E02C075956795CB
:1005B0000A94E2F76170F70181917F010E94E701DF
:1005C0002196C430D10579F7C601DF91CF911F91F3
:1005D0000F91FF90EF90DF90CF900C94AC02CF92F0
:1005E000DF92EF92FF920F931F93CF93DF93EC0173
:1005F000F62E642F8C810E94E7018D818F3F19F0C8
:1006000060E00E94E7010F2D10E08F8584FF25C078
:100610006E0187E0C80ED11CF12CE12CB8010E2C24
:1006200002C0759567950A94E2F76170F6018191B1
:100630006F010E94E701FFEFEF1AFF0A88E0E8165A
:10064000F10461F7CE01DF91CF911F910F91FF90DF
:10065000EF90DF90CF900C94AC02B80184E07595D8
:1006600067958A95E1F7CE010E94C2026F2DCE01F7
:10067000DF91CF911F910F91FF90EF90DF90CF907E
:100680000C94C20240E0682F8AEC92E00C94EF02D6
:10069000CF93DF93823029F49091D90298609093A0
:1006A000D9028093DD021092DE0280E48093DF02A3
:1006B00080E18093E00280E58093E10261E0809137
:1006C000CE020E9415028091CF028F3F19F061E0A7
:1006D0000E94150261E08091D0020E941502CAECCE
:1006E000D2E09E012A5C32408091D90284FD0BC089
:1006F00084E090E021962817390744F461E08E8168
:100700000E941502EECF88E090E0F4CF8BE39DE0ED
:100710000197F1F760E08091CE020E94E70160E06E
:100720008091D0020E94E7018091CF028F3F19F0A3
:1007300060E00E94E7018091D90284FD39C063E046
:100740008AEC92E00E94C202CBE4D6E4CE0101978B
:10075000F1F763E08AEC92E00E94C2022197F1F780
:1007600063E08AEC92E00E94C20283E592E0019786
:10077000F1F762E08AEC92E00E94C2028091D90215
:1007800080620E94420384E08093DA028CE00E943F
:10079000420381E00E9442038BE39FE10197F1F75E
:1007A00082E08093DB0286E0DF91CF910C944203DC
:1007B00080620E9442038BE496E40197F1F78091F6
:1007C000D90280620E94420383E592E00197F1F72B
:1007D0008091D90280620E944203D0CF9091DD02C5
:1007E000691710F06FEF690FE62FF0E0E653FD4F49
:1007F0009489890F80680C94420341E00E94EF02C3
:1008000081E090E008950F931F93CF93DF93EC0165
:1008100088819981009759F02A813B8126173707F3
:1008200030F081E0DF91CF911F910F9108958B01FE
:100830006F5F7F4F0E94200B009759F09983888348
:100840001B830A832C813D81232B59F7FC011082E5
:10085000E8CF80E0E7CFEF92FF920F931F93CF9303
:10086000DF9341155105B1F07B01EC010C811D8135
:10087000040F151FB8010E940304882361F028812A
:1008800039818C819D81B701820F931F0E94E60BF5
:100890001D830C8381E0DF91CF911F910F91FF9019
:1008A000EF900895CF93DF93EC01888199810097B1
:1008B00011F00E94970A198218821D821C821B82E5
:1008C0001A82DF91CF910895EF92FF920F931F93B9
:1008D000CF93DF93EC017B018A01BA010E940304EC
:1008E00081110BC0CE010E945204CE01DF91CF9145
:1008F0001F910F91FF90EF9008951D830C83B70116
:10090000888199810E94E60BF0CFCF93DF93EC01B1
:10091000FB018617970749F06081718161157105A8
:1009200041F0448155810E946404CE01DF91CF9152
:1009300008950E945204F9CFFC01808191810097B3
:1009400011F00C94970A0895FB0101900020E9F73B
:100950003197AF01461B570BDC01ED91FC910280F2
:10096000F381E02D09948F929F92AF92BF92EF9204
:10097000FF920F931F93CF93DF93CDB7DEB7A1976D
:100980000FB6F894DEBF0FBECDBF7C01FA01CB01DC
:1009900019A2223008F42AE08E010F5D1F4F822E2B
:1009A000912CB12CA12CBF01A50194010E94D30967
:1009B000F901CA016A300CF5605DD8016E938D01B2
:1009C000232B242B252B79F790E080E0109721F042
:1009D000BD01C7010E94A404A1960FB6F894DEBF22
:1009E0000FBECDBFDF91CF911F910F91FF90EF9080
:1009F000BF90AF909F908F900895695CDECFCF92AB
:100A0000DF92EF92FF926C01990FEE08FF08F7FE5C
:100A100018C041E06DE28AEC92E00E94EF024427A8
:100A20005527BA014C195D096E097F092AE08AEC45
:100A300092E00E94B3040196FF90EF90DF90CF9078
:100A400008952AE0B701A6018AEC92E0FF90EF90AA
:100A5000DF90CF900C94B3040C94A404EF92FF9217
:100A60000F931F93CF93DF93CDB7DEB72E970FB6BB
:100A7000F894DEBF0FBECDBF41E550E064E271E007
:100A800082EB92E00E946404E0900902F0900A0276
:100A90001A8619861C861B861E861D8662EB72E0EE
:100AA000CE0109960E9485044AE08E010F5F1F4F18
:100AB000B801C7010E946709F80101900020E9F719
:100AC0003197AF01401B510BB801CE0109960E942E
:100AD0002B04811104C0CE0109960E945204BE016C
:100AE000675F7F4F82EB92E00E948504CE010996FA
:100AF0000E949C041A8219821C821B821E821D8203
:100B000062EB72E0C8010E94850447E050E066E7AE
:100B100071E0C8010E942B04811103C0C8010E942A
:100B20005204B80182EB92E00E948504C8010E9441
:100B30009C04E0900502F09006021A8619861C8635
:100B40001B861E861D8662EB72E0CE0109960E940E
:100B500085044AE0B801C7010E947209F8010190BA
:100B60000020E9F73197AF01401B510BB801CE01CE
:100B700009960E942B04811104C0CE0109960E949F
:100B80005204BE01675F7F4F82EB92E00E948504B2
:100B9000CE0109960E949C046EE771E085E192E027
:100BA0000E942C054091B6025091B7026091B202AA
:100BB0007091B30285E192E00E948D006DE871E0D2
:100BC00085E192E00E94A4046DE871E085E192E085
:100BD0000E94A4046DE871E085E192E00E94A40403
:100BE00068EE73E080E090E00E94760264EF71E0CE
:100BF00080E090E00E9476022E960FB6F894DEBF59
:100C00000FBECDBFDF91CF911F910F91FF90EF905D
:100C100008951F920F920FB60F9211242F933F93B6
:100C20004F935F936F937F938F939F93AF93BF93F4
:100C3000EF93FF9385E192E00E940B01FF91EF910A
:100C4000BF91AF919F918F917F916F915F914F91E4
:100C50003F912F910F900FBE0F901F9018951F92EC
:100C60000F920FB60F9211242F938F939F93EF93B0
:100C7000FF93E0912502F09126028081E0912B0202
:100C8000F0912C0282FD1BC0908180912E028F5F1B
:100C90008F7320912F02821741F0E0912E02F0E035
:100CA000EB5EFD4F958F80932E02FF91EF919F9108
:100CB0008F912F910F900FBE0F901F9018958081EC
:100CC000F4CF1F920F920FB60F9211242F933F93E0
:100CD0008F939F93AF93BF938091010290910202F3
:100CE000A0910302B09104023091FC0123E0230F94
:100CF0002D3758F50196A11DB11D2093FC0180935D
:100D0000010290930202A0930302B0930402809127
:100D1000FD019091FE01A091FF01B09100020196AA
:100D2000A11DB11D8093FD019093FE01A093FF01D1
:100D3000B0930002BF91AF919F918F913F912F91FE
:100D40000F900FBE0F901F90189526E8230F029664
:100D5000A11DB11DD2CFFC0111821082138212821B
:100D600015821482FB0101900020E9F73197AF0151
:100D7000461B570B0C946404E5E1F2E013821282E7
:100D800088EE93E0A0E0B0E084839583A683B783E8
:100D90008AE091E09183808385EC90E09587848759
:100DA00084EC90E09787868780EC90E0918B808B35
:100DB00081EC90E0938B828B82EC90E0958B848B1E
:100DC00086EC90E0978B868B118E128E138E148E8C
:100DD000EAECF2E0138212828CE191E0918380834D
:100DE00084E084838FEF858385E0868386E0878334
:100DF00087E0808788E0818789E082871386148670
:100E000015861686178681E00E9448036FE871E018
:100E100084EC92E00E94AB066FE871E08EEB92E00A
:100E20000E94AB0660E971E088EB92E00E94AB069D
:100E30006FE871E082EB92E00C94AB06789484B595
:100E4000826084BD84B5816084BD85B5826085BDC6
:100E500085B5816085BD80916E00816080936E0054
:100E60001092810080918100826080938100809146
:100E700081008160809381008091800081608093F7
:100E800080008091B10084608093B1008091B000B7
:100E900081608093B00080917A00846080937A00B2
:100EA00080917A00826080937A0080917A008160DC
:100EB00080937A0080917A00806880937A00109203
:100EC000C100E0912502F091260282E08083E0914A
:100ED0002102F09122021082E0912302F09124027B
:100EE0008FEC808310922D02E0912902F0912A026A
:100EF00086E08083E0912702F09128028081806162
:100F00008083E0912702F0912802808188608083AD
:100F1000E0912702F0912802808180688083E0912F
:100F20002702F091280280818F7D808382E00E94D9
:100F3000480360E08EE00E94150262E082E00E94B9
:100F4000150261E083E00E94150260E083E00E94E8
:100F5000E70160E080E00E94EE0367E971E08AEC5F
:100F600092E00E942C0561E080E00E94EE0368EAB6
:100F700071E08AEC92E00E942C0569EB71E085E15A
:100F800092E00E94A4046DE871E085E192E00E9485
:100F9000A40460ED77E080E090E00E94760281E0BA
:100FA0000E9442038BE39FE10197F1F760E080E04C
:100FB0000E94EE0365ED71E08AEC92E00E942C0540
:100FC00061E080E00E94EE0365EE71E08AEC92E061
:100FD0000E942C0580E4F82E96E0E92EC0E0D0E0D7
:100FE00001E010E08FB7F8944091010250910202A5
:100FF00060910302709104028FBF80911102909161
:101000001202A0911302B09114025A016B01A81AA6
:10101000B90ACA0ADB0AD601C501883E9340A10578
:10102000B105D0F080910F0290911002019690933B
:10103000100280930F0280910D0290910E02019692
:1010400090930E0280930D0240931102509312026E
:1010500060931302709314020E94C301892B09F05C
:10106000D7C080910B0290910C02892B09F0D0C05F
:1010700010930C0200930B028091070290910802DA
:101080008436910554F461E08BE00E94EE0363EE38
:1010900071E08AEC92E00E942C0561E08AE00E94F7
:1010A000EE038091090290910A020E94FF04F092DF
:1010B0007C0080917A00806480937A0080917A002D
:1010C00086FDFCCF90917800809179008927982740
:1010D000892790930602809305028A30910508F0D3
:1010E000B1C060E088E00E94EE0361EE71E08AEC3E
:1010F00092E00E942C0560E087E00E94EE034091A0
:1011000005025091060270E060E02AE08AEC92E06D
:101110000E94B304409105025091060270E060E025
:101120002AE085E192E00E94B3046DE871E085E178
:1011300092E00E94A4048091050290910602899792
:1011400008F495C061E083E00E94E7010E942E054B
:1011500060E08EE00E94EE0365EF71E08AEC92E0C1
:101160000E942C0580910F02909110020A9708F4BA
:1011700044C02091090230910A02E29EC001E39E20
:10118000900D1124909308028093070284369105F4
:1011900054F461E088E00E94EE0363EE71E08AECB3
:1011A00092E00E942C0561E087E00E94EE038091AE
:1011B0000702909108020E94FF048091070290911B
:1011C0000802CC97899708F05DC060E083E00E9438
:1011D000E70161E08EE00E94EE0368EF71E08AECC7
:1011E00092E00E942C050E942E0510920A02109295
:1011F00009021092100210920F02209709F4F2CE09
:101200000E94F700882309F4EDCE0E940000EACE88
:101210000E94C301019709F02FCF80910B0290919A
:101220000C02019709F028CF10920C0210920B02C9
:101230008091090290910A02019690930A0280938C
:1012400009021ACF8436910538F460E089E00E94E3
:10125000EE0362EE71E04BCF883E934008F04BCF37
:1012600060E08AE00E94EE0363EE71E040CF60E050
:1012700083E00E94E70160E08EE00E94EE0368EFE9
:1012800071E06CCF61E083E00E94E70168EE73E0FB
:1012900080E090E00E94760260E083E00E94E70137
:1012A00061E08EE00E94EE0365EF71E098CF82EB83
:1012B00092E00E949C0488EB92E00E949C048EEBDA
:1012C00092E00E949C0484EC92E00C949C04BB2766
:1012D0004A3031F4992322F4BDE2909581959F4FD5
:1012E0000C947309BB27FB015527AA27880F991F68
:1012F000AA1FA41710F0A41B83955051B9F7A05D45
:10130000AA3308F0A95DA193009779F7B111B193C1
:101310001192CB010C948C09DC01FC01672F7191B7
:101320007723E1F7329704C07C916D9370836291CB
:10133000AE17BF07C8F308952F923F924F925F9266
:101340006F927F928F929F92AF92BF92CF92DF92D5
:10135000EF92FF920F931F93CF93DF93CDB7DEB73A
:10136000CA1BDB0B0FB6F894DEBF0FBECDBF0994CE
:101370002A88398848885F846E847D848C849B8425
:10138000AA84B984C884DF80EE80FD800C811B8133
:10139000AA81B981CE0FD11D0FB6F894DEBF0FBE62
:1013A000CDBFED010895A1E21A2EAA1BBB1BFD01C2
:1013B0000DC0AA1FBB1FEE1FFF1FA217B307E40734
:1013C000F50720F0A21BB30BE40BF50B661F771F8C
:1013D000881F991F1A9469F760957095809590956C
:1013E0009B01AC01BD01CF010895EE0FFF1F0590D9
:1013F000F491E02D09940F931F93CF93DF938230E4
:10140000910510F482E090E0E091E402F091E502B1
:1014100030E020E0B0E0A0E0309799F421153105EC
:1014200009F44AC0281B390B24303105D8F58A81CC
:101430009B816115710589F1FB0193838283FE0114
:1014400011C0408151810281138148175907E0F092
:101450004817590799F4109761F012960C93129758
:1014600013961C933296CF01DF91CF911F910F916C
:1014700008950093E4021093E502F4CF211531059D
:1014800051F04217530738F0A901DB019A01BD0161
:10149000DF01F801C1CFEF01F9CF9093E50280930E
:1014A000E402CDCFFE01E20FF31F8193919322500E
:1014B000310939832883D7CF2091E2023091E302AA
:1014C000232B41F420910201309103013093E30278
:1014D0002093E20220910001309101012115310594
:1014E00041F42DB73EB74091040150910501241BF2
:1014F000350BE091E202F091E302E217F307A0F46A
:101500002E1B3F0B2817390778F0AC014E5F5F4F59
:101510002417350748F04E0F5F1F5093E3024093A6
:10152000E202819391939FCFF0E0E0E09CCFCF93D4
:10153000DF930097E9F0FC01329713821282A091A9
:10154000E402B091E502ED0130E020E01097A1F453
:1015500020813181820F931F2091E2023091E302BA
:101560002817390709F061C0F093E302E093E20223
:10157000DF91CF910895EA01CE17DF07E8F54A81A0
:101580005B819E0141155105B1F7E901FB83EA83B7
:1015900049915991C40FD51FEC17FD0761F4808163
:1015A00091810296840F951FE90199838883828136
:1015B00093819B838A83F0E0E0E012968D919C9169
:1015C00013970097B9F52D913C911197CD01029693
:1015D000820F931F2091E2023091E302281739070E
:1015E00039F6309751F51092E5021092E402B0936B
:1015F000E302A093E202BCCFD383C2834081518136
:10160000840F951FC817D90761F44E5F5F4F88811B
:101610009981480F591F518340838A819B8193830D
:1016200082832115310509F0B0CFF093E502E093F4
:10163000E4029ECFFD01DC01C0CF13821282D7CF1E
:10164000B0E0A0E0E6E2FBE00C949E098C0100977C
:1016500051F4CB010E94FB098C01C801CDB7DEB764
:10166000E0E10C94BA09FC01E60FF71F9C0122503F
:101670003109E217F30708F49DC0D901CD91DC913F
:101680001197C617D70798F0C530D10530F3CE01B2
:1016900004978617970708F3C61BD70B2297C193A9
:1016A000D1936D937C93CF010E94970AD6CF5B01B3
:1016B000AC1ABD0A4C018C0E9D1EA091E402B091A3
:1016C000E502512C412CF12CE12C109731F5809141
:1016D000E2029091E3028815990509F05CC0461674
:1016E000570608F058C080910001909101010097C1
:1016F00041F48DB79EB74091040150910501841BC0
:10170000950BE817F90708F055C0F093E302E09352
:10171000E202F90171836083A0CF8D919C911197B2
:1017200012966C90129713967C901397A815B90592
:1017300059F56C0142E0C40ED11CCA14DB0420F13F
:10174000AC014A195B09DA011296159780F06282A2
:10175000738251834083D9016D937C93E114F1042A
:1017600071F0D7011396FC93EE93129776CF2296E1
:101770008C0F9D1FF90191838083F301EFCFF093CC
:10178000E502E093E40269CF4816590608F42C01FB
:101790007D01D3019ACFCB010E94FB097C01009708
:1017A00049F0AE01B8010E94DD0BC8010E94970A02
:1017B000870153CF10E000E050CFFB01DC0102C0F5
:1017C00001900D9241505040D8F70895FB01DC0183
:1017D00001900D920020E1F7089510E0C2E6D0E0FC
:1017E00004C0FE010E94F5092196C336D107C9F74E
:0417F000F894FFCF9B
:1017F4000000E6028000000000002D018D00BA0008
:101804007A01EB00C900DD0000000000FD038D003B
:10181400A902A802687474703A2F2F696F742D702E
:10182400617469656E746865616C74682E6B72614D
:1018340062642E636F6D2F646174612E7068703FF3
:101844007569643D414444574557533534323145F5
:1018540057354254444D37455448474B58542664F1
:10186400617461313D002664617461323D00574505
:10187400422053656E642055524C3A20000D0A00F4
:101884004E4F524D414C002050617469656E742076
:101894004865616C746820002020206D6F6E697447
:1018A4006F72696E67202020002050617469656E34
:1018B40074204865616C7468206D6F6E69746F7212
:1018C400696E67200054656D70203A202020202026
:1018D400202020200050756C73653A2020202020A1
:0C18E40020202020004162004E6D00001A
:00000001FF
